{
  "contractName": "Deal",
  "abi": [
    {
      "constant": true,
      "inputs": [
        {
          "name": "",
          "type": "uint256"
        }
      ],
      "name": "campaigns",
      "outputs": [
        {
          "name": "creator",
          "type": "address"
        },
        {
          "name": "tokenAmount",
          "type": "uint256"
        },
        {
          "name": "finished",
          "type": "bool"
        }
      ],
      "payable": false,
      "stateMutability": "view",
      "type": "function"
    },
    {
      "constant": true,
      "inputs": [],
      "name": "campaignNum",
      "outputs": [
        {
          "name": "",
          "type": "uint256"
        }
      ],
      "payable": false,
      "stateMutability": "view",
      "type": "function"
    },
    {
      "constant": true,
      "inputs": [],
      "name": "token",
      "outputs": [
        {
          "name": "",
          "type": "address"
        }
      ],
      "payable": false,
      "stateMutability": "view",
      "type": "function"
    },
    {
      "inputs": [
        {
          "name": "addr",
          "type": "address"
        }
      ],
      "payable": false,
      "stateMutability": "nonpayable",
      "type": "constructor"
    },
    {
      "constant": false,
      "inputs": [
        {
          "name": "creator",
          "type": "address"
        },
        {
          "name": "_addresses",
          "type": "address[]"
        }
      ],
      "name": "createCampaign",
      "outputs": [
        {
          "name": "campaignId",
          "type": "uint256"
        }
      ],
      "payable": false,
      "stateMutability": "nonpayable",
      "type": "function"
    },
    {
      "constant": true,
      "inputs": [
        {
          "name": "id",
          "type": "uint256"
        }
      ],
      "name": "getCampaignById",
      "outputs": [
        {
          "name": "",
          "type": "address[]"
        }
      ],
      "payable": false,
      "stateMutability": "view",
      "type": "function"
    },
    {
      "constant": false,
      "inputs": [
        {
          "name": "creator",
          "type": "address"
        },
        {
          "name": "id",
          "type": "uint256"
        },
        {
          "name": "amount",
          "type": "uint256[]"
        }
      ],
      "name": "sendCoin",
      "outputs": [],
      "payable": false,
      "stateMutability": "nonpayable",
      "type": "function"
    }
  ],
  "bytecode": "0x6060604052341561000f57600080fd5b60405160208061087183398101604052808051906020019091905050806000806101000a81548173ffffffffffffffffffffffffffffffffffffffff021916908373ffffffffffffffffffffffffffffffffffffffff160217905550506107f68061007b6000396000f300606060405260043610610078576000357c0100000000000000000000000000000000000000000000000000000000900463ffffffff16806303fee66e1461007d578063141961bc146100ff5780636dbfd86e14610174578063c5e0cfd014610201578063e6ffcaa11461022a578063fc0c546a146102a2575b600080fd5b341561008857600080fd5b6100fd600480803573ffffffffffffffffffffffffffffffffffffffff16906020019091908035906020019091908035906020019082018035906020019080806020026020016040519081016040528093929190818152602001838360200280828437820191505050505050919050506102f7565b005b341561010a57600080fd5b61012060048080359060200190919050506104c5565b604051808473ffffffffffffffffffffffffffffffffffffffff1673ffffffffffffffffffffffffffffffffffffffff16815260200183815260200182151515158152602001935050505060405180910390f35b341561017f57600080fd5b6101eb600480803573ffffffffffffffffffffffffffffffffffffffff169060200190919080359060200190820180359060200190808060200260200160405190810160405280939291908181526020018383602002808284378201915050505050509190505061051c565b6040518082815260200191505060405180910390f35b341561020c57600080fd5b610214610614565b6040518082815260200191505060405180910390f35b341561023557600080fd5b61024b600480803590602001909190505061061a565b6040518080602001828103825283818151815260200191508051906020019060200280838360005b8381101561028e578082015181840152602081019050610273565b505050509050019250505060405180910390f35b34156102ad57600080fd5b6102b56106c4565b604051808273ffffffffffffffffffffffffffffffffffffffff1673ffffffffffffffffffffffffffffffffffffffff16815260200191505060405180910390f35b60008090505b81518160ff161015610490576000809054906101000a900473ffffffffffffffffffffffffffffffffffffffff1673ffffffffffffffffffffffffffffffffffffffff166323b872dd85600260008781526020019081526020016000206001018460ff1681548110151561036d57fe5b906000526020600020900160009054906101000a900473ffffffffffffffffffffffffffffffffffffffff16858560ff168151811015156103aa57fe5b906020019060200201516040518463ffffffff167c0100000000000000000000000000000000000000000000000000000000028152600401808473ffffffffffffffffffffffffffffffffffffffff1673ffffffffffffffffffffffffffffffffffffffff1681526020018373ffffffffffffffffffffffffffffffffffffffff1673ffffffffffffffffffffffffffffffffffffffff1681526020018281526020019350505050602060405180830381600087803b151561046b57600080fd5b5af1151561047857600080fd5b505050604051805190505080806001019150506102fd565b60016002600085815260200190815260200160002060030160006101000a81548160ff02191690831515021790555050505050565b60026020528060005260406000206000915090508060000160009054906101000a900473ffffffffffffffffffffffffffffffffffffffff16908060020154908060030160009054906101000a900460ff16905083565b60006080604051908101604052808473ffffffffffffffffffffffffffffffffffffffff1681526020018381526020016000815260200160001515815250600260006001600081548092919060010191905055815260200190815260200160002060008201518160000160006101000a81548173ffffffffffffffffffffffffffffffffffffffff021916908373ffffffffffffffffffffffffffffffffffffffff16021790555060208201518160010190805190602001906105e09291906106e9565b506040820151816002015560608201518160030160006101000a81548160ff02191690831515021790555090505092915050565b60015481565b610622610773565b600260008381526020019081526020016000206001018054806020026020016040519081016040528092919081815260200182805480156106b857602002820191906000526020600020905b8160009054906101000a900473ffffffffffffffffffffffffffffffffffffffff1673ffffffffffffffffffffffffffffffffffffffff168152602001906001019080831161066e575b50505050509050919050565b6000809054906101000a900473ffffffffffffffffffffffffffffffffffffffff1681565b828054828255906000526020600020908101928215610762579160200282015b828111156107615782518260006101000a81548173ffffffffffffffffffffffffffffffffffffffff021916908373ffffffffffffffffffffffffffffffffffffffff16021790555091602001919060010190610709565b5b50905061076f9190610787565b5090565b602060405190810160405280600081525090565b6107c791905b808211156107c357600081816101000a81549073ffffffffffffffffffffffffffffffffffffffff02191690555060010161078d565b5090565b905600a165627a7a72305820dff568ac1cec24cc8d3a2b5fa14aeac5d518ce14fca0e839bcff111ddf6377350029",
  "source": "pragma solidity ^0.4.19;\n\n\n\ncontract ERC20Interface {\n    function totalSupply() public constant returns (uint);\n    function balanceOf(address tokenOwner) public constant returns (uint balance);\n    function allowance(address tokenOwner, address spender) public constant returns (uint remaining);\n    function transfer(address to, uint tokens) public returns (bool success);\n    function approve(address spender, uint tokens) public returns (bool success);\n    function transferFrom(address from, address to, uint tokens) public returns (bool success);\n\n    event Transfer(address indexed from, address indexed to, uint tokens);\n    event Approval(address indexed tokenOwner, address indexed spender, uint tokens);\n}\n\ncontract Deal {\n\n    struct Campaign {\n        address creator;\n        address[] routers;\n        uint tokenAmount;\n        bool finished;\n    }\n\n    ERC20Interface public token;\n\n    uint public campaignNum;\n\n    mapping (uint => Campaign) public campaigns;\n\n\n    function Deal(address addr) {\n        token = ERC20Interface(addr);\n    }\n\n    function createCampaign(address creator, address[] _addresses) returns (uint campaignId) {\n        campaigns[campaignNum ++] = Campaign(creator, _addresses, 0, false);\n    }\n\n    function getCampaignById(uint id) public constant returns (address[]) {\n        return  campaigns[id].routers;\n    }\n\n    function sendCoin(address creator, uint id, uint[] amount) {\n        for (var i = 0; i < amount.length; i++) {\n           token.transferFrom(creator, campaigns[id].routers[i], amount[i]); \n        }\n        campaigns[id].finished = true;  \n    }\n}",
  "sourcePath": "/Users/artem/Documents/advCompany/contracts/Deal.sol",
  "compiler": {
    "name": "solc",
    "version": "0.4.21+commit.dfe3193c.Emscripten.clang"
  },
  "schemaVersion": "2.0.0",
  "updatedAt": "2018-05-08T11:47:05.193Z"
}