{
  "contractName": "StandardToken",
  "abi": [
    {
      "constant": true,
      "inputs": [],
      "name": "totalSupply",
      "outputs": [
        {
          "name": "",
          "type": "uint256"
        }
      ],
      "payable": false,
      "stateMutability": "view",
      "type": "function"
    },
    {
      "anonymous": false,
      "inputs": [
        {
          "indexed": false,
          "name": "receiver",
          "type": "address"
        },
        {
          "indexed": false,
          "name": "amount",
          "type": "uint256"
        }
      ],
      "name": "Minted",
      "type": "event"
    },
    {
      "anonymous": false,
      "inputs": [
        {
          "indexed": true,
          "name": "from",
          "type": "address"
        },
        {
          "indexed": true,
          "name": "to",
          "type": "address"
        },
        {
          "indexed": false,
          "name": "value",
          "type": "uint256"
        }
      ],
      "name": "Transfer",
      "type": "event"
    },
    {
      "anonymous": false,
      "inputs": [
        {
          "indexed": true,
          "name": "owner",
          "type": "address"
        },
        {
          "indexed": true,
          "name": "spender",
          "type": "address"
        },
        {
          "indexed": false,
          "name": "value",
          "type": "uint256"
        }
      ],
      "name": "Approval",
      "type": "event"
    },
    {
      "constant": false,
      "inputs": [
        {
          "name": "_to",
          "type": "address"
        },
        {
          "name": "_value",
          "type": "uint256"
        }
      ],
      "name": "transfer",
      "outputs": [
        {
          "name": "success",
          "type": "bool"
        }
      ],
      "payable": false,
      "stateMutability": "nonpayable",
      "type": "function"
    },
    {
      "constant": false,
      "inputs": [
        {
          "name": "_from",
          "type": "address"
        },
        {
          "name": "_to",
          "type": "address"
        },
        {
          "name": "_value",
          "type": "uint256"
        }
      ],
      "name": "transferFrom",
      "outputs": [
        {
          "name": "success",
          "type": "bool"
        }
      ],
      "payable": false,
      "stateMutability": "nonpayable",
      "type": "function"
    },
    {
      "constant": true,
      "inputs": [
        {
          "name": "_owner",
          "type": "address"
        }
      ],
      "name": "balanceOf",
      "outputs": [
        {
          "name": "balance",
          "type": "uint256"
        }
      ],
      "payable": false,
      "stateMutability": "view",
      "type": "function"
    },
    {
      "constant": false,
      "inputs": [
        {
          "name": "_spender",
          "type": "address"
        },
        {
          "name": "_value",
          "type": "uint256"
        }
      ],
      "name": "approve",
      "outputs": [
        {
          "name": "success",
          "type": "bool"
        }
      ],
      "payable": false,
      "stateMutability": "nonpayable",
      "type": "function"
    },
    {
      "constant": true,
      "inputs": [
        {
          "name": "_owner",
          "type": "address"
        },
        {
          "name": "_spender",
          "type": "address"
        }
      ],
      "name": "allowance",
      "outputs": [
        {
          "name": "remaining",
          "type": "uint256"
        }
      ],
      "payable": false,
      "stateMutability": "view",
      "type": "function"
    },
    {
      "constant": false,
      "inputs": [
        {
          "name": "_spender",
          "type": "address"
        },
        {
          "name": "_addedValue",
          "type": "uint256"
        }
      ],
      "name": "addApproval",
      "outputs": [
        {
          "name": "success",
          "type": "bool"
        }
      ],
      "payable": false,
      "stateMutability": "nonpayable",
      "type": "function"
    },
    {
      "constant": false,
      "inputs": [
        {
          "name": "_spender",
          "type": "address"
        },
        {
          "name": "_subtractedValue",
          "type": "uint256"
        }
      ],
      "name": "subApproval",
      "outputs": [
        {
          "name": "success",
          "type": "bool"
        }
      ],
      "payable": false,
      "stateMutability": "nonpayable",
      "type": "function"
    }
  ],
  "bytecode": "0x6060604052341561000f57600080fd5b610f198061001e6000396000f30060606040526004361061008e576000357c0100000000000000000000000000000000000000000000000000000000900463ffffffff168063095ea7b31461009357806318160ddd146100ed57806323b872dd1461011657806370a082311461018f578063a9059cbb146101dc578063ac3cb72c14610236578063dd62ed3e14610290578063e2301d02146102fc575b600080fd5b341561009e57600080fd5b6100d3600480803573ffffffffffffffffffffffffffffffffffffffff16906020019091908035906020019091905050610356565b604051808215151515815260200191505060405180910390f35b34156100f857600080fd5b6101006104df565b6040518082815260200191505060405180910390f35b341561012157600080fd5b610175600480803573ffffffffffffffffffffffffffffffffffffffff1690602001909190803573ffffffffffffffffffffffffffffffffffffffff169060200190919080359060200190919050506104e5565b604051808215151515815260200191505060405180910390f35b341561019a57600080fd5b6101c6600480803573ffffffffffffffffffffffffffffffffffffffff1690602001909190505061077a565b6040518082815260200191505060405180910390f35b34156101e757600080fd5b61021c600480803573ffffffffffffffffffffffffffffffffffffffff169060200190919080359060200190919050506107c3565b604051808215151515815260200191505060405180910390f35b341561024157600080fd5b610276600480803573ffffffffffffffffffffffffffffffffffffffff16906020019091908035906020019091905050610964565b604051808215151515815260200191505060405180910390f35b341561029b57600080fd5b6102e6600480803573ffffffffffffffffffffffffffffffffffffffff1690602001909190803573ffffffffffffffffffffffffffffffffffffffff16906020019091905050610b74565b6040518082815260200191505060405180910390f35b341561030757600080fd5b61033c600480803573ffffffffffffffffffffffffffffffffffffffff16906020019091908035906020019091905050610bfb565b604051808215151515815260200191505060405180910390f35b60008082141580156103e557506000600260003373ffffffffffffffffffffffffffffffffffffffff1673ffffffffffffffffffffffffffffffffffffffff16815260200190815260200160002060008573ffffffffffffffffffffffffffffffffffffffff1673ffffffffffffffffffffffffffffffffffffffff1681526020019081526020016000205414155b156103ef57600080fd5b81600260003373ffffffffffffffffffffffffffffffffffffffff1673ffffffffffffffffffffffffffffffffffffffff16815260200190815260200160002060008573ffffffffffffffffffffffffffffffffffffffff1673ffffffffffffffffffffffffffffffffffffffff168152602001908152602001600020819055508273ffffffffffffffffffffffffffffffffffffffff163373ffffffffffffffffffffffffffffffffffffffff167f8c5be1e5ebec7d5bd14f71427d1e84f3dd0314c0f7b2291e5b200ac8c7c3b925846040518082815260200191505060405180910390a36001905092915050565b60005481565b600080600260008673ffffffffffffffffffffffffffffffffffffffff1673ffffffffffffffffffffffffffffffffffffffff16815260200190815260200160002060003373ffffffffffffffffffffffffffffffffffffffff1673ffffffffffffffffffffffffffffffffffffffff1681526020019081526020016000205490506105b0600160008673ffffffffffffffffffffffffffffffffffffffff1673ffffffffffffffffffffffffffffffffffffffff1681526020019081526020016000205484610e9b565b600160008673ffffffffffffffffffffffffffffffffffffffff1673ffffffffffffffffffffffffffffffffffffffff1681526020019081526020016000208190555061063c600160008773ffffffffffffffffffffffffffffffffffffffff1673ffffffffffffffffffffffffffffffffffffffff1681526020019081526020016000205484610ec5565b600160008773ffffffffffffffffffffffffffffffffffffffff1673ffffffffffffffffffffffffffffffffffffffff168152602001908152602001600020819055506106898184610ec5565b600260008773ffffffffffffffffffffffffffffffffffffffff1673ffffffffffffffffffffffffffffffffffffffff16815260200190815260200160002060003373ffffffffffffffffffffffffffffffffffffffff1673ffffffffffffffffffffffffffffffffffffffff168152602001908152602001600020819055508373ffffffffffffffffffffffffffffffffffffffff168573ffffffffffffffffffffffffffffffffffffffff167fddf252ad1be2c89b69c2b068fc378daa952ba7f163c4a11628f55a4df523b3ef856040518082815260200191505060405180910390a360019150509392505050565b6000600160008373ffffffffffffffffffffffffffffffffffffffff1673ffffffffffffffffffffffffffffffffffffffff168152602001908152602001600020549050919050565b600060406004810160003690501415156107dc57600080fd5b610825600160003373ffffffffffffffffffffffffffffffffffffffff1673ffffffffffffffffffffffffffffffffffffffff1681526020019081526020016000205484610ec5565b600160003373ffffffffffffffffffffffffffffffffffffffff1673ffffffffffffffffffffffffffffffffffffffff168152602001908152602001600020819055506108b1600160008673ffffffffffffffffffffffffffffffffffffffff1673ffffffffffffffffffffffffffffffffffffffff1681526020019081526020016000205484610e9b565b600160008673ffffffffffffffffffffffffffffffffffffffff1673ffffffffffffffffffffffffffffffffffffffff168152602001908152602001600020819055508373ffffffffffffffffffffffffffffffffffffffff163373ffffffffffffffffffffffffffffffffffffffff167fddf252ad1be2c89b69c2b068fc378daa952ba7f163c4a11628f55a4df523b3ef856040518082815260200191505060405180910390a3600191505092915050565b600080604060048101600036905014151561097e57600080fd5b600260003373ffffffffffffffffffffffffffffffffffffffff1673ffffffffffffffffffffffffffffffffffffffff16815260200190815260200160002060008673ffffffffffffffffffffffffffffffffffffffff1673ffffffffffffffffffffffffffffffffffffffff168152602001908152602001600020549150610a078285610e9b565b600260003373ffffffffffffffffffffffffffffffffffffffff1673ffffffffffffffffffffffffffffffffffffffff16815260200190815260200160002060008773ffffffffffffffffffffffffffffffffffffffff1673ffffffffffffffffffffffffffffffffffffffff168152602001908152602001600020819055508473ffffffffffffffffffffffffffffffffffffffff163373ffffffffffffffffffffffffffffffffffffffff167f8c5be1e5ebec7d5bd14f71427d1e84f3dd0314c0f7b2291e5b200ac8c7c3b925600260003373ffffffffffffffffffffffffffffffffffffffff1673ffffffffffffffffffffffffffffffffffffffff16815260200190815260200160002060008973ffffffffffffffffffffffffffffffffffffffff1673ffffffffffffffffffffffffffffffffffffffff168152602001908152602001600020546040518082815260200191505060405180910390a360019250505092915050565b6000600260008473ffffffffffffffffffffffffffffffffffffffff1673ffffffffffffffffffffffffffffffffffffffff16815260200190815260200160002060008373ffffffffffffffffffffffffffffffffffffffff1673ffffffffffffffffffffffffffffffffffffffff16815260200190815260200160002054905092915050565b6000806040600481016000369050141515610c1557600080fd5b600260003373ffffffffffffffffffffffffffffffffffffffff1673ffffffffffffffffffffffffffffffffffffffff16815260200190815260200160002060008673ffffffffffffffffffffffffffffffffffffffff1673ffffffffffffffffffffffffffffffffffffffff16815260200190815260200160002054915081841115610d23576000600260003373ffffffffffffffffffffffffffffffffffffffff1673ffffffffffffffffffffffffffffffffffffffff16815260200190815260200160002060008773ffffffffffffffffffffffffffffffffffffffff1673ffffffffffffffffffffffffffffffffffffffff16815260200190815260200160002081905550610dae565b610d2d8285610ec5565b600260003373ffffffffffffffffffffffffffffffffffffffff1673ffffffffffffffffffffffffffffffffffffffff16815260200190815260200160002060008773ffffffffffffffffffffffffffffffffffffffff1673ffffffffffffffffffffffffffffffffffffffff168152602001908152602001600020819055505b8473ffffffffffffffffffffffffffffffffffffffff163373ffffffffffffffffffffffffffffffffffffffff167f8c5be1e5ebec7d5bd14f71427d1e84f3dd0314c0f7b2291e5b200ac8c7c3b925600260003373ffffffffffffffffffffffffffffffffffffffff1673ffffffffffffffffffffffffffffffffffffffff16815260200190815260200160002060008973ffffffffffffffffffffffffffffffffffffffff1673ffffffffffffffffffffffffffffffffffffffff168152602001908152602001600020546040518082815260200191505060405180910390a360019250505092915050565b6000808284019050610ebb848210158015610eb65750838210155b610ede565b8091505092915050565b6000610ed383831115610ede565b818303905092915050565b801515610eea57600080fd5b505600a165627a7a723058205c3df4dacb73dbf2021d81251bdc0cf83ded2dbbbeb11745b658199209fd7e1b0029",
  "source": "pragma solidity ^0.4.13;\n\n/*\n * ERC20 interface\n * see https://github.com/ethereum/EIPs/issues/20\n */\ncontract ERC20 {\n  uint public totalSupply;\n  function balanceOf(address who) constant returns (uint);\n  function allowance(address owner, address spender) constant returns (uint);\n\n  function transfer(address to, uint value) returns (bool ok);\n  function transferFrom(address from, address to, uint value) returns (bool ok);\n  function approve(address spender, uint value) returns (bool ok);\n  event Transfer(address indexed from, address indexed to, uint value);\n  event Approval(address indexed owner, address indexed spender, uint value);\n}\n\n// ERC223\ncontract ContractReceiver {\n  function tokenFallback(address from, uint value);\n}\n\n/**\n * Math operations with safety checks\n */\ncontract SafeMath {\n  function safeMul(uint a, uint b) internal returns (uint) {\n    uint c = a * b;\n    assert(a == 0 || c / a == b);\n    return c;\n  }\n\n  function safeDiv(uint a, uint b) internal returns (uint) {\n    assert(b > 0);\n    uint c = a / b;\n    assert(a == b * c + a % b);\n    return c;\n  }\n\n  function safeSub(uint a, uint b) internal returns (uint) {\n    assert(b <= a);\n    return a - b;\n  }\n\n  function safeAdd(uint a, uint b) internal returns (uint) {\n    uint c = a + b;\n    assert(c>=a && c>=b);\n    return c;\n  }\n\n  function max64(uint64 a, uint64 b) internal constant returns (uint64) {\n    return a >= b ? a : b;\n  }\n\n  function min64(uint64 a, uint64 b) internal constant returns (uint64) {\n    return a < b ? a : b;\n  }\n\n  function max256(uint256 a, uint256 b) internal constant returns (uint256) {\n    return a >= b ? a : b;\n  }\n\n  function min256(uint256 a, uint256 b) internal constant returns (uint256) {\n    return a < b ? a : b;\n  }\n\n  function assert(bool assertion) internal {\n    if (!assertion) {\n      revert();\n    }\n  }\n}\n\n\n\n/**\n * Standard ERC20 token with Short Hand Attack and approve() race condition mitigation.\n *\n * Based on code by FirstBlood:\n * https://github.com/Firstbloodio/token/blob/master/smart_contract/FirstBloodToken.sol\n */\ncontract StandardToken is ERC20, SafeMath {\n\n  /* Token supply got increased and a new owner received these tokens */\n  event Minted(address receiver, uint amount);\n\n  /* Actual balances of token holders */\n  mapping(address => uint) balances;\n\n  /* approve() allowances */\n  mapping (address => mapping (address => uint)) allowed;\n\n  /**\n   *\n   * Fix for the ERC20 short address attack\n   *\n   * http://vessenes.com/the-erc20-short-address-attack-explained/\n   */\n  modifier onlyPayloadSize(uint size) {\n     if(msg.data.length != size + 4) {\n       revert();\n     }\n     _;\n  }\n\n  function transfer(address _to, uint _value) onlyPayloadSize(2 * 32) returns (bool success) {\n    balances[msg.sender] = safeSub(balances[msg.sender], _value);\n    balances[_to] = safeAdd(balances[_to], _value);\n    Transfer(msg.sender, _to, _value);\n\n    return true;\n  }\n\n  // ERC223 fetch contract size (must be nonzero to be a contract)\n  function isContract( address _addr ) private returns (bool) {\n    uint length;\n    _addr = _addr;\n    assembly { length := extcodesize(_addr) }\n    return (length > 0);\n  }\n\n  function transferFrom(address _from, address _to, uint _value) returns (bool success) {\n    uint _allowance = allowed[_from][msg.sender];\n\n    // Check is not needed because safeSub(_allowance, _value) will already throw if this condition is not met\n    // if (_value > _allowance) revert();\n\n    balances[_to] = safeAdd(balances[_to], _value);\n    balances[_from] = safeSub(balances[_from], _value);\n    allowed[_from][msg.sender] = safeSub(_allowance, _value);\n    Transfer(_from, _to, _value);\n    return true;\n  }\n\n  function balanceOf(address _owner) constant returns (uint balance) {\n    return balances[_owner];\n  }\n\n  function approve(address _spender, uint _value) returns (bool success) {\n\n    // To change the approve amount you first have to reduce the addresses`\n    //  allowance to zero by calling `approve(_spender, 0)` if it is not\n    //  already 0 to mitigate the race condition described here:\n    //  https://github.com/ethereum/EIPs/issues/20#issuecomment-263524729\n    if ((_value != 0) && (allowed[msg.sender][_spender] != 0)) revert();\n\n    allowed[msg.sender][_spender] = _value;\n    Approval(msg.sender, _spender, _value);\n    return true;\n  }\n\n  function allowance(address _owner, address _spender) constant returns (uint remaining) {\n    return allowed[_owner][_spender];\n  }\n\n  /**\n   * Atomic increment of approved spending\n   *\n   * Works around https://github.com/ethereum/EIPs/issues/20#issuecomment-263524729\n   *\n   */\n  function addApproval(address _spender, uint _addedValue)\n  onlyPayloadSize(2 * 32)\n  returns (bool success) {\n      uint oldValue = allowed[msg.sender][_spender];\n      allowed[msg.sender][_spender] = safeAdd(oldValue, _addedValue);\n      Approval(msg.sender, _spender, allowed[msg.sender][_spender]);\n      return true;\n  }\n\n  /**\n   * Atomic decrement of approved spending.\n   *\n   * Works around https://github.com/ethereum/EIPs/issues/20#issuecomment-263524729\n   */\n  function subApproval(address _spender, uint _subtractedValue)\n  onlyPayloadSize(2 * 32)\n  returns (bool success) {\n\n      uint oldVal = allowed[msg.sender][_spender];\n\n      if (_subtractedValue > oldVal) {\n          allowed[msg.sender][_spender] = 0;\n      } else {\n          allowed[msg.sender][_spender] = safeSub(oldVal, _subtractedValue);\n      }\n      Approval(msg.sender, _spender, allowed[msg.sender][_spender]);\n      return true;\n  }\n\n}\n\n\n\ncontract BurnableToken is StandardToken {\n\n  address public constant BURN_ADDRESS = 0;\n\n  /** How many tokens we burned */\n  event Burned(address burner, uint burnedAmount);\n\n  /**\n   * Burn extra tokens from a balance.\n   *\n   */\n  function burn(uint burnAmount) {\n    address burner = msg.sender;\n    balances[burner] = safeSub(balances[burner], burnAmount);\n    totalSupply = safeSub(totalSupply, burnAmount);\n    Burned(burner, burnAmount);\n  }\n}\n\n\n\n\n\n/**\n * Upgrade agent interface inspired by Lunyr.\n *\n * Upgrade agent transfers tokens to a new contract.\n * Upgrade agent itself can be the token contract, or just a middle man contract doing the heavy lifting.\n */\ncontract UpgradeAgent {\n\n  uint public originalSupply;\n\n  /** Interface marker */\n  function isUpgradeAgent() public constant returns (bool) {\n    return true;\n  }\n\n  function upgradeFrom(address _from, uint256 _value) public;\n\n}\n\n\n/**\n * A token upgrade mechanism where users can opt-in amount of tokens to the next smart contract revision.\n *\n * First envisioned by Golem and Lunyr projects.\n */\ncontract UpgradeableToken is StandardToken {\n\n  /** Contract / person who can set the upgrade path. This can be the same as team multisig wallet, as what it is with its default value. */\n  address public upgradeMaster;\n\n  /** The next contract where the tokens will be migrated. */\n  UpgradeAgent public upgradeAgent;\n\n  /** How many tokens we have upgraded by now. */\n  uint256 public totalUpgraded;\n\n  /**\n   * Upgrade states.\n   *\n   * - NotAllowed: The child contract has not reached a condition where the upgrade can bgun\n   * - WaitingForAgent: Token allows upgrade, but we don't have a new agent yet\n   * - ReadyToUpgrade: The agent is set, but not a single token has been upgraded yet\n   * - Upgrading: Upgrade agent is set and the balance holders can upgrade their tokens\n   *\n   */\n  enum UpgradeState {Unknown, NotAllowed, WaitingForAgent, ReadyToUpgrade, Upgrading}\n\n  /**\n   * Somebody has upgraded some of his tokens.\n   */\n  event Upgrade(address indexed _from, address indexed _to, uint256 _value);\n\n  /**\n   * New upgrade agent available.\n   */\n  event UpgradeAgentSet(address agent);\n\n  /**\n   * Do not allow construction without upgrade master set.\n   */\n  function UpgradeableToken(address _upgradeMaster) {\n    upgradeMaster = _upgradeMaster;\n  }\n\n  /**\n   * Allow the token holder to upgrade some of their tokens to a new contract.\n   */\n  function upgrade(uint256 value) public {\n\n      UpgradeState state = getUpgradeState();\n      if(!(state == UpgradeState.ReadyToUpgrade || state == UpgradeState.Upgrading)) {\n        // Called in a bad state\n        revert();\n      }\n\n      // Validate input value.\n      if (value == 0) revert();\n\n      balances[msg.sender] = safeSub(balances[msg.sender], value);\n\n      // Take tokens out from circulation\n      totalSupply = safeSub(totalSupply, value);\n      totalUpgraded = safeAdd(totalUpgraded, value);\n\n      // Upgrade agent reissues the tokens\n      upgradeAgent.upgradeFrom(msg.sender, value);\n      Upgrade(msg.sender, upgradeAgent, value);\n  }\n\n  /**\n   * Set an upgrade agent that handles\n   */\n  function setUpgradeAgent(address agent) external {\n\n      if(!canUpgrade()) {\n        // The token is not yet in a state that we could think upgrading\n        revert();\n      }\n\n      if (agent == 0x0) revert();\n      // Only a master can designate the next agent\n      if (msg.sender != upgradeMaster) revert();\n      // Upgrade has already begun for an agent\n      if (getUpgradeState() == UpgradeState.Upgrading) revert();\n\n      upgradeAgent = UpgradeAgent(agent);\n\n      // Bad interface\n      if(!upgradeAgent.isUpgradeAgent()) revert();\n      // Make sure that token supplies match in source and target\n      if (upgradeAgent.originalSupply() != totalSupply) revert();\n\n      UpgradeAgentSet(upgradeAgent);\n  }\n\n  /**\n   * Get the state of the token upgrade.\n   */\n  function getUpgradeState() public constant returns(UpgradeState) {\n    if(!canUpgrade()) return UpgradeState.NotAllowed;\n    else if(address(upgradeAgent) == 0x00) return UpgradeState.WaitingForAgent;\n    else if(totalUpgraded == 0) return UpgradeState.ReadyToUpgrade;\n    else return UpgradeState.Upgrading;\n  }\n\n  /**\n   * Change the upgrade master.\n   *\n   * This allows us to set a new owner for the upgrade mechanism.\n   */\n  function setUpgradeMaster(address master) public {\n      if (master == 0x0) revert();\n      if (msg.sender != upgradeMaster) revert();\n      upgradeMaster = master;\n  }\n\n  /**\n   * Child contract can enable to provide the condition when the upgrade can begun.\n   */\n  function canUpgrade() public constant returns(bool) {\n     return true;\n  }\n\n}\n\n\ncontract WTToken is BurnableToken, UpgradeableToken {\n\n  string public name;\n  string public symbol;\n  uint public decimals;\n  address public owner;\n\n  bool public mintingFinished = false;\n\n  mapping(address => uint) public previligedBalances;\n\n  /** List of agents that are allowed to create new tokens */\n  mapping(address => bool) public mintAgents;\n  event MintingAgentChanged(address addr, bool state);\n\n  modifier onlyOwner() {\n    if(msg.sender != owner) revert();\n    _;\n  }\n\n  modifier onlyMintAgent() {\n    // Only crowdsale contracts are allowed to mint new tokens\n    if(!mintAgents[msg.sender]) revert();\n    _;\n  }\n\n  /** Make sure we are not done yet. */\n  modifier canMint() {\n    if(mintingFinished) revert();\n    _;\n  }\n\n  function transferOwnership(address newOwner) onlyOwner {\n    if (newOwner != address(0)) {\n      owner = newOwner;\n    }\n  }\n\n  function WTToken() {\n    name = \"wetoken\";\n    symbol = \"wetoken\";\n    totalSupply = 3000000000;\n    decimals = 2;\n    owner = msg.sender;\n    // Allocate initial balance to the owner\n    balances[owner] = totalSupply;\n  }\n\n  // privileged transfer\n  function transferPrivileged(address _to, uint _value) onlyOwner returns (bool success) {\n    balances[msg.sender] = safeSub(balances[msg.sender], _value);\n    balances[_to] = safeAdd(balances[_to], _value);\n    previligedBalances[_to] = safeAdd(previligedBalances[_to], _value);\n    Transfer(msg.sender, _to, _value);\n    return true;\n  }\n\n  // get priveleged balance\n  function getPrivilegedBalance(address _owner) constant returns (uint balance) {\n    return previligedBalances[_owner];\n  }\n\n  // admin only can transfer from the privileged accounts\n  function transferFromPrivileged(address _from, address _to, uint _value) onlyOwner returns (bool success) {\n    uint availablePrevilegedBalance = previligedBalances[_from];\n\n    balances[_from] = safeSub(balances[_from], _value);\n    balances[_to] = safeAdd(balances[_to], _value);\n    previligedBalances[_from] = safeSub(availablePrevilegedBalance, _value);\n    Transfer(_from, _to, _value);\n    return true;\n  }\n\n  /**\n   * Create new tokens and allocate them to an address..\n   *\n   * Only callably by a crowdsale contract (mint agent).\n   */\n  function mint(address receiver, uint amount) onlyMintAgent canMint public {\n    totalSupply = safeAdd(totalSupply, amount);\n    balances[receiver] = safeAdd(balances[receiver], amount);\n\n    // This will make the mint transaction apper in EtherScan.io\n    // We can remove this after there is a standardized minting event\n    Transfer(0, receiver, amount);\n  }\n\n  /**\n   * Owner can allow a crowdsale contract to mint new tokens.\n   */\n  function setMintAgent(address addr, bool state) onlyOwner canMint public {\n    mintAgents[addr] = state;\n    MintingAgentChanged(addr, state);\n  }\n\n}",
  "sourcePath": "/Users/artem/Documents/advCompany/contracts/WTToken.sol",
  "compiler": {
    "name": "solc",
    "version": "0.4.21+commit.dfe3193c.Emscripten.clang"
  },
  "schemaVersion": "2.0.0",
  "updatedAt": "2018-05-07T11:41:00.556Z"
}