{
  "contractName": "UpgradeableToken",
  "abi": [
    {
      "constant": false,
      "inputs": [
        {
          "name": "_spender",
          "type": "address"
        },
        {
          "name": "_value",
          "type": "uint256"
        }
      ],
      "name": "approve",
      "outputs": [
        {
          "name": "success",
          "type": "bool"
        }
      ],
      "payable": false,
      "stateMutability": "nonpayable",
      "type": "function"
    },
    {
      "constant": true,
      "inputs": [],
      "name": "totalSupply",
      "outputs": [
        {
          "name": "",
          "type": "uint256"
        }
      ],
      "payable": false,
      "stateMutability": "view",
      "type": "function"
    },
    {
      "constant": false,
      "inputs": [
        {
          "name": "_from",
          "type": "address"
        },
        {
          "name": "_to",
          "type": "address"
        },
        {
          "name": "_value",
          "type": "uint256"
        }
      ],
      "name": "transferFrom",
      "outputs": [
        {
          "name": "success",
          "type": "bool"
        }
      ],
      "payable": false,
      "stateMutability": "nonpayable",
      "type": "function"
    },
    {
      "constant": true,
      "inputs": [],
      "name": "upgradeAgent",
      "outputs": [
        {
          "name": "",
          "type": "address"
        }
      ],
      "payable": false,
      "stateMutability": "view",
      "type": "function"
    },
    {
      "constant": true,
      "inputs": [],
      "name": "upgradeMaster",
      "outputs": [
        {
          "name": "",
          "type": "address"
        }
      ],
      "payable": false,
      "stateMutability": "view",
      "type": "function"
    },
    {
      "constant": true,
      "inputs": [
        {
          "name": "_owner",
          "type": "address"
        }
      ],
      "name": "balanceOf",
      "outputs": [
        {
          "name": "balance",
          "type": "uint256"
        }
      ],
      "payable": false,
      "stateMutability": "view",
      "type": "function"
    },
    {
      "constant": false,
      "inputs": [
        {
          "name": "_to",
          "type": "address"
        },
        {
          "name": "_value",
          "type": "uint256"
        }
      ],
      "name": "transfer",
      "outputs": [
        {
          "name": "success",
          "type": "bool"
        }
      ],
      "payable": false,
      "stateMutability": "nonpayable",
      "type": "function"
    },
    {
      "constant": false,
      "inputs": [
        {
          "name": "_spender",
          "type": "address"
        },
        {
          "name": "_addedValue",
          "type": "uint256"
        }
      ],
      "name": "addApproval",
      "outputs": [
        {
          "name": "success",
          "type": "bool"
        }
      ],
      "payable": false,
      "stateMutability": "nonpayable",
      "type": "function"
    },
    {
      "constant": true,
      "inputs": [],
      "name": "totalUpgraded",
      "outputs": [
        {
          "name": "",
          "type": "uint256"
        }
      ],
      "payable": false,
      "stateMutability": "view",
      "type": "function"
    },
    {
      "constant": true,
      "inputs": [
        {
          "name": "_owner",
          "type": "address"
        },
        {
          "name": "_spender",
          "type": "address"
        }
      ],
      "name": "allowance",
      "outputs": [
        {
          "name": "remaining",
          "type": "uint256"
        }
      ],
      "payable": false,
      "stateMutability": "view",
      "type": "function"
    },
    {
      "constant": false,
      "inputs": [
        {
          "name": "_spender",
          "type": "address"
        },
        {
          "name": "_subtractedValue",
          "type": "uint256"
        }
      ],
      "name": "subApproval",
      "outputs": [
        {
          "name": "success",
          "type": "bool"
        }
      ],
      "payable": false,
      "stateMutability": "nonpayable",
      "type": "function"
    },
    {
      "inputs": [
        {
          "name": "_upgradeMaster",
          "type": "address"
        }
      ],
      "payable": false,
      "stateMutability": "nonpayable",
      "type": "constructor"
    },
    {
      "anonymous": false,
      "inputs": [
        {
          "indexed": true,
          "name": "_from",
          "type": "address"
        },
        {
          "indexed": true,
          "name": "_to",
          "type": "address"
        },
        {
          "indexed": false,
          "name": "_value",
          "type": "uint256"
        }
      ],
      "name": "Upgrade",
      "type": "event"
    },
    {
      "anonymous": false,
      "inputs": [
        {
          "indexed": false,
          "name": "agent",
          "type": "address"
        }
      ],
      "name": "UpgradeAgentSet",
      "type": "event"
    },
    {
      "anonymous": false,
      "inputs": [
        {
          "indexed": false,
          "name": "receiver",
          "type": "address"
        },
        {
          "indexed": false,
          "name": "amount",
          "type": "uint256"
        }
      ],
      "name": "Minted",
      "type": "event"
    },
    {
      "anonymous": false,
      "inputs": [
        {
          "indexed": true,
          "name": "from",
          "type": "address"
        },
        {
          "indexed": true,
          "name": "to",
          "type": "address"
        },
        {
          "indexed": false,
          "name": "value",
          "type": "uint256"
        }
      ],
      "name": "Transfer",
      "type": "event"
    },
    {
      "anonymous": false,
      "inputs": [
        {
          "indexed": true,
          "name": "owner",
          "type": "address"
        },
        {
          "indexed": true,
          "name": "spender",
          "type": "address"
        },
        {
          "indexed": false,
          "name": "value",
          "type": "uint256"
        }
      ],
      "name": "Approval",
      "type": "event"
    },
    {
      "constant": false,
      "inputs": [
        {
          "name": "value",
          "type": "uint256"
        }
      ],
      "name": "upgrade",
      "outputs": [],
      "payable": false,
      "stateMutability": "nonpayable",
      "type": "function"
    },
    {
      "constant": false,
      "inputs": [
        {
          "name": "agent",
          "type": "address"
        }
      ],
      "name": "setUpgradeAgent",
      "outputs": [],
      "payable": false,
      "stateMutability": "nonpayable",
      "type": "function"
    },
    {
      "constant": true,
      "inputs": [],
      "name": "getUpgradeState",
      "outputs": [
        {
          "name": "",
          "type": "uint8"
        }
      ],
      "payable": false,
      "stateMutability": "view",
      "type": "function"
    },
    {
      "constant": false,
      "inputs": [
        {
          "name": "master",
          "type": "address"
        }
      ],
      "name": "setUpgradeMaster",
      "outputs": [],
      "payable": false,
      "stateMutability": "nonpayable",
      "type": "function"
    },
    {
      "constant": true,
      "inputs": [],
      "name": "canUpgrade",
      "outputs": [
        {
          "name": "",
          "type": "bool"
        }
      ],
      "payable": false,
      "stateMutability": "view",
      "type": "function"
    }
  ],
  "bytecode": "0x6060604052341561000f57600080fd5b60405160208061189d8339810160405280805190602001909190505080600360006101000a81548173ffffffffffffffffffffffffffffffffffffffff021916908373ffffffffffffffffffffffffffffffffffffffff160217905550506118218061007c6000396000f3006060604052600436106100e6576000357c0100000000000000000000000000000000000000000000000000000000900463ffffffff168063095ea7b3146100eb57806318160ddd1461014557806323b872dd1461016e57806345977d03146101e75780635de4ccb01461020a578063600440cb1461025f57806370a08231146102b45780638444b391146103015780639738968c14610338578063a9059cbb14610365578063ac3cb72c146103bf578063c752ff6214610419578063d7e7088a14610442578063dd62ed3e1461047b578063e2301d02146104e7578063ffeb7d7514610541575b600080fd5b34156100f657600080fd5b61012b600480803573ffffffffffffffffffffffffffffffffffffffff1690602001909190803590602001909190505061057a565b604051808215151515815260200191505060405180910390f35b341561015057600080fd5b610158610703565b6040518082815260200191505060405180910390f35b341561017957600080fd5b6101cd600480803573ffffffffffffffffffffffffffffffffffffffff1690602001909190803573ffffffffffffffffffffffffffffffffffffffff16906020019091908035906020019091905050610709565b604051808215151515815260200191505060405180910390f35b34156101f257600080fd5b610208600480803590602001909190505061099e565b005b341561021557600080fd5b61021d610c0c565b604051808273ffffffffffffffffffffffffffffffffffffffff1673ffffffffffffffffffffffffffffffffffffffff16815260200191505060405180910390f35b341561026a57600080fd5b610272610c32565b604051808273ffffffffffffffffffffffffffffffffffffffff1673ffffffffffffffffffffffffffffffffffffffff16815260200191505060405180910390f35b34156102bf57600080fd5b6102eb600480803573ffffffffffffffffffffffffffffffffffffffff16906020019091905050610c58565b6040518082815260200191505060405180910390f35b341561030c57600080fd5b610314610ca1565b6040518082600481111561032457fe5b60ff16815260200191505060405180910390f35b341561034357600080fd5b61034b610d20565b604051808215151515815260200191505060405180910390f35b341561037057600080fd5b6103a5600480803573ffffffffffffffffffffffffffffffffffffffff16906020019091908035906020019091905050610d29565b604051808215151515815260200191505060405180910390f35b34156103ca57600080fd5b6103ff600480803573ffffffffffffffffffffffffffffffffffffffff16906020019091908035906020019091905050610eca565b604051808215151515815260200191505060405180910390f35b341561042457600080fd5b61042c6110da565b6040518082815260200191505060405180910390f35b341561044d57600080fd5b610479600480803573ffffffffffffffffffffffffffffffffffffffff169060200190919050506110e0565b005b341561048657600080fd5b6104d1600480803573ffffffffffffffffffffffffffffffffffffffff1690602001909190803573ffffffffffffffffffffffffffffffffffffffff169060200190919050506113b8565b6040518082815260200191505060405180910390f35b34156104f257600080fd5b610527600480803573ffffffffffffffffffffffffffffffffffffffff1690602001909190803590602001909190505061143f565b604051808215151515815260200191505060405180910390f35b341561054c57600080fd5b610578600480803573ffffffffffffffffffffffffffffffffffffffff169060200190919050506116df565b005b600080821415801561060957506000600260003373ffffffffffffffffffffffffffffffffffffffff1673ffffffffffffffffffffffffffffffffffffffff16815260200190815260200160002060008573ffffffffffffffffffffffffffffffffffffffff1673ffffffffffffffffffffffffffffffffffffffff1681526020019081526020016000205414155b1561061357600080fd5b81600260003373ffffffffffffffffffffffffffffffffffffffff1673ffffffffffffffffffffffffffffffffffffffff16815260200190815260200160002060008573ffffffffffffffffffffffffffffffffffffffff1673ffffffffffffffffffffffffffffffffffffffff168152602001908152602001600020819055508273ffffffffffffffffffffffffffffffffffffffff163373ffffffffffffffffffffffffffffffffffffffff167f8c5be1e5ebec7d5bd14f71427d1e84f3dd0314c0f7b2291e5b200ac8c7c3b925846040518082815260200191505060405180910390a36001905092915050565b60005481565b600080600260008673ffffffffffffffffffffffffffffffffffffffff1673ffffffffffffffffffffffffffffffffffffffff16815260200190815260200160002060003373ffffffffffffffffffffffffffffffffffffffff1673ffffffffffffffffffffffffffffffffffffffff1681526020019081526020016000205490506107d4600160008673ffffffffffffffffffffffffffffffffffffffff1673ffffffffffffffffffffffffffffffffffffffff16815260200190815260200160002054846117a3565b600160008673ffffffffffffffffffffffffffffffffffffffff1673ffffffffffffffffffffffffffffffffffffffff16815260200190815260200160002081905550610860600160008773ffffffffffffffffffffffffffffffffffffffff1673ffffffffffffffffffffffffffffffffffffffff16815260200190815260200160002054846117cd565b600160008773ffffffffffffffffffffffffffffffffffffffff1673ffffffffffffffffffffffffffffffffffffffff168152602001908152602001600020819055506108ad81846117cd565b600260008773ffffffffffffffffffffffffffffffffffffffff1673ffffffffffffffffffffffffffffffffffffffff16815260200190815260200160002060003373ffffffffffffffffffffffffffffffffffffffff1673ffffffffffffffffffffffffffffffffffffffff168152602001908152602001600020819055508373ffffffffffffffffffffffffffffffffffffffff168573ffffffffffffffffffffffffffffffffffffffff167fddf252ad1be2c89b69c2b068fc378daa952ba7f163c4a11628f55a4df523b3ef856040518082815260200191505060405180910390a360019150509392505050565b60006109a8610ca1565b9050600360048111156109b757fe5b8160048111156109c357fe5b14806109e457506004808111156109d657fe5b8160048111156109e257fe5b145b15156109ef57600080fd5b60008214156109fd57600080fd5b610a46600160003373ffffffffffffffffffffffffffffffffffffffff1673ffffffffffffffffffffffffffffffffffffffff16815260200190815260200160002054836117cd565b600160003373ffffffffffffffffffffffffffffffffffffffff1673ffffffffffffffffffffffffffffffffffffffff16815260200190815260200160002081905550610a95600054836117cd565b600081905550610aa7600554836117a3565b600581905550600460009054906101000a900473ffffffffffffffffffffffffffffffffffffffff1673ffffffffffffffffffffffffffffffffffffffff1663753e88e533846040518363ffffffff167c0100000000000000000000000000000000000000000000000000000000028152600401808373ffffffffffffffffffffffffffffffffffffffff1673ffffffffffffffffffffffffffffffffffffffff16815260200182815260200192505050600060405180830381600087803b1515610b7157600080fd5b5af11515610b7e57600080fd5b505050600460009054906101000a900473ffffffffffffffffffffffffffffffffffffffff1673ffffffffffffffffffffffffffffffffffffffff163373ffffffffffffffffffffffffffffffffffffffff167f7e5c344a8141a805725cb476f76c6953b842222b967edd1f78ddb6e8b3f397ac846040518082815260200191505060405180910390a35050565b600460009054906101000a900473ffffffffffffffffffffffffffffffffffffffff1681565b600360009054906101000a900473ffffffffffffffffffffffffffffffffffffffff1681565b6000600160008373ffffffffffffffffffffffffffffffffffffffff1673ffffffffffffffffffffffffffffffffffffffff168152602001908152602001600020549050919050565b6000610cab610d20565b1515610cba5760019050610d1d565b6000600460009054906101000a900473ffffffffffffffffffffffffffffffffffffffff1673ffffffffffffffffffffffffffffffffffffffff161415610d045760029050610d1d565b60006005541415610d185760039050610d1d565b600490505b90565b60006001905090565b60006040600481016000369050141515610d4257600080fd5b610d8b600160003373ffffffffffffffffffffffffffffffffffffffff1673ffffffffffffffffffffffffffffffffffffffff16815260200190815260200160002054846117cd565b600160003373ffffffffffffffffffffffffffffffffffffffff1673ffffffffffffffffffffffffffffffffffffffff16815260200190815260200160002081905550610e17600160008673ffffffffffffffffffffffffffffffffffffffff1673ffffffffffffffffffffffffffffffffffffffff16815260200190815260200160002054846117a3565b600160008673ffffffffffffffffffffffffffffffffffffffff1673ffffffffffffffffffffffffffffffffffffffff168152602001908152602001600020819055508373ffffffffffffffffffffffffffffffffffffffff163373ffffffffffffffffffffffffffffffffffffffff167fddf252ad1be2c89b69c2b068fc378daa952ba7f163c4a11628f55a4df523b3ef856040518082815260200191505060405180910390a3600191505092915050565b6000806040600481016000369050141515610ee457600080fd5b600260003373ffffffffffffffffffffffffffffffffffffffff1673ffffffffffffffffffffffffffffffffffffffff16815260200190815260200160002060008673ffffffffffffffffffffffffffffffffffffffff1673ffffffffffffffffffffffffffffffffffffffff168152602001908152602001600020549150610f6d82856117a3565b600260003373ffffffffffffffffffffffffffffffffffffffff1673ffffffffffffffffffffffffffffffffffffffff16815260200190815260200160002060008773ffffffffffffffffffffffffffffffffffffffff1673ffffffffffffffffffffffffffffffffffffffff168152602001908152602001600020819055508473ffffffffffffffffffffffffffffffffffffffff163373ffffffffffffffffffffffffffffffffffffffff167f8c5be1e5ebec7d5bd14f71427d1e84f3dd0314c0f7b2291e5b200ac8c7c3b925600260003373ffffffffffffffffffffffffffffffffffffffff1673ffffffffffffffffffffffffffffffffffffffff16815260200190815260200160002060008973ffffffffffffffffffffffffffffffffffffffff1673ffffffffffffffffffffffffffffffffffffffff168152602001908152602001600020546040518082815260200191505060405180910390a360019250505092915050565b60055481565b6110e8610d20565b15156110f357600080fd5b60008173ffffffffffffffffffffffffffffffffffffffff16141561111757600080fd5b600360009054906101000a900473ffffffffffffffffffffffffffffffffffffffff1673ffffffffffffffffffffffffffffffffffffffff163373ffffffffffffffffffffffffffffffffffffffff1614151561117357600080fd5b60048081111561117f57fe5b611187610ca1565b600481111561119257fe5b141561119d57600080fd5b80600460006101000a81548173ffffffffffffffffffffffffffffffffffffffff021916908373ffffffffffffffffffffffffffffffffffffffff160217905550600460009054906101000a900473ffffffffffffffffffffffffffffffffffffffff1673ffffffffffffffffffffffffffffffffffffffff166361d3d7a66040518163ffffffff167c0100000000000000000000000000000000000000000000000000000000028152600401602060405180830381600087803b151561126357600080fd5b5af1151561127057600080fd5b50505060405180519050151561128557600080fd5b600054600460009054906101000a900473ffffffffffffffffffffffffffffffffffffffff1673ffffffffffffffffffffffffffffffffffffffff16634b2ba0dd6040518163ffffffff167c0100000000000000000000000000000000000000000000000000000000028152600401602060405180830381600087803b151561130d57600080fd5b5af1151561131a57600080fd5b5050506040518051905014151561133057600080fd5b7f7845d5aa74cc410e35571258d954f23b82276e160fe8c188fa80566580f279cc600460009054906101000a900473ffffffffffffffffffffffffffffffffffffffff16604051808273ffffffffffffffffffffffffffffffffffffffff1673ffffffffffffffffffffffffffffffffffffffff16815260200191505060405180910390a150565b6000600260008473ffffffffffffffffffffffffffffffffffffffff1673ffffffffffffffffffffffffffffffffffffffff16815260200190815260200160002060008373ffffffffffffffffffffffffffffffffffffffff1673ffffffffffffffffffffffffffffffffffffffff16815260200190815260200160002054905092915050565b600080604060048101600036905014151561145957600080fd5b600260003373ffffffffffffffffffffffffffffffffffffffff1673ffffffffffffffffffffffffffffffffffffffff16815260200190815260200160002060008673ffffffffffffffffffffffffffffffffffffffff1673ffffffffffffffffffffffffffffffffffffffff16815260200190815260200160002054915081841115611567576000600260003373ffffffffffffffffffffffffffffffffffffffff1673ffffffffffffffffffffffffffffffffffffffff16815260200190815260200160002060008773ffffffffffffffffffffffffffffffffffffffff1673ffffffffffffffffffffffffffffffffffffffff168152602001908152602001600020819055506115f2565b61157182856117cd565b600260003373ffffffffffffffffffffffffffffffffffffffff1673ffffffffffffffffffffffffffffffffffffffff16815260200190815260200160002060008773ffffffffffffffffffffffffffffffffffffffff1673ffffffffffffffffffffffffffffffffffffffff168152602001908152602001600020819055505b8473ffffffffffffffffffffffffffffffffffffffff163373ffffffffffffffffffffffffffffffffffffffff167f8c5be1e5ebec7d5bd14f71427d1e84f3dd0314c0f7b2291e5b200ac8c7c3b925600260003373ffffffffffffffffffffffffffffffffffffffff1673ffffffffffffffffffffffffffffffffffffffff16815260200190815260200160002060008973ffffffffffffffffffffffffffffffffffffffff1673ffffffffffffffffffffffffffffffffffffffff168152602001908152602001600020546040518082815260200191505060405180910390a360019250505092915050565b60008173ffffffffffffffffffffffffffffffffffffffff16141561170357600080fd5b600360009054906101000a900473ffffffffffffffffffffffffffffffffffffffff1673ffffffffffffffffffffffffffffffffffffffff163373ffffffffffffffffffffffffffffffffffffffff1614151561175f57600080fd5b80600360006101000a81548173ffffffffffffffffffffffffffffffffffffffff021916908373ffffffffffffffffffffffffffffffffffffffff16021790555050565b60008082840190506117c38482101580156117be5750838210155b6117e6565b8091505092915050565b60006117db838311156117e6565b818303905092915050565b8015156117f257600080fd5b505600a165627a7a723058201b99dd1eaddfd0b96a22d54746d3d92c9b3037df8a07a67bc0e7cdba428faede0029",
  "source": "pragma solidity ^0.4.13;\n\n/*\n * ERC20 interface\n * see https://github.com/ethereum/EIPs/issues/20\n */\ncontract ERC20 {\n  uint public totalSupply;\n  function balanceOf(address who) constant returns (uint);\n  function allowance(address owner, address spender) constant returns (uint);\n\n  function transfer(address to, uint value) returns (bool ok);\n  function transferFrom(address from, address to, uint value) returns (bool ok);\n  function approve(address spender, uint value) returns (bool ok);\n  event Transfer(address indexed from, address indexed to, uint value);\n  event Approval(address indexed owner, address indexed spender, uint value);\n}\n\n// ERC223\ncontract ContractReceiver {\n  function tokenFallback(address from, uint value);\n}\n\n/**\n * Math operations with safety checks\n */\ncontract SafeMath {\n  function safeMul(uint a, uint b) internal returns (uint) {\n    uint c = a * b;\n    assert(a == 0 || c / a == b);\n    return c;\n  }\n\n  function safeDiv(uint a, uint b) internal returns (uint) {\n    assert(b > 0);\n    uint c = a / b;\n    assert(a == b * c + a % b);\n    return c;\n  }\n\n  function safeSub(uint a, uint b) internal returns (uint) {\n    assert(b <= a);\n    return a - b;\n  }\n\n  function safeAdd(uint a, uint b) internal returns (uint) {\n    uint c = a + b;\n    assert(c>=a && c>=b);\n    return c;\n  }\n\n  function max64(uint64 a, uint64 b) internal constant returns (uint64) {\n    return a >= b ? a : b;\n  }\n\n  function min64(uint64 a, uint64 b) internal constant returns (uint64) {\n    return a < b ? a : b;\n  }\n\n  function max256(uint256 a, uint256 b) internal constant returns (uint256) {\n    return a >= b ? a : b;\n  }\n\n  function min256(uint256 a, uint256 b) internal constant returns (uint256) {\n    return a < b ? a : b;\n  }\n\n  function assert(bool assertion) internal {\n    if (!assertion) {\n      revert();\n    }\n  }\n}\n\n\n\n/**\n * Standard ERC20 token with Short Hand Attack and approve() race condition mitigation.\n *\n * Based on code by FirstBlood:\n * https://github.com/Firstbloodio/token/blob/master/smart_contract/FirstBloodToken.sol\n */\ncontract StandardToken is ERC20, SafeMath {\n\n  /* Token supply got increased and a new owner received these tokens */\n  event Minted(address receiver, uint amount);\n\n  /* Actual balances of token holders */\n  mapping(address => uint) balances;\n\n  /* approve() allowances */\n  mapping (address => mapping (address => uint)) allowed;\n\n  /**\n   *\n   * Fix for the ERC20 short address attack\n   *\n   * http://vessenes.com/the-erc20-short-address-attack-explained/\n   */\n  modifier onlyPayloadSize(uint size) {\n     if(msg.data.length != size + 4) {\n       revert();\n     }\n     _;\n  }\n\n  function transfer(address _to, uint _value) onlyPayloadSize(2 * 32) returns (bool success) {\n    balances[msg.sender] = safeSub(balances[msg.sender], _value);\n    balances[_to] = safeAdd(balances[_to], _value);\n    Transfer(msg.sender, _to, _value);\n\n    return true;\n  }\n\n  // ERC223 fetch contract size (must be nonzero to be a contract)\n  function isContract( address _addr ) private returns (bool) {\n    uint length;\n    _addr = _addr;\n    assembly { length := extcodesize(_addr) }\n    return (length > 0);\n  }\n\n  function transferFrom(address _from, address _to, uint _value) returns (bool success) {\n    uint _allowance = allowed[_from][msg.sender];\n\n    // Check is not needed because safeSub(_allowance, _value) will already throw if this condition is not met\n    // if (_value > _allowance) revert();\n\n    balances[_to] = safeAdd(balances[_to], _value);\n    balances[_from] = safeSub(balances[_from], _value);\n    allowed[_from][msg.sender] = safeSub(_allowance, _value);\n    Transfer(_from, _to, _value);\n    return true;\n  }\n\n  function balanceOf(address _owner) constant returns (uint balance) {\n    return balances[_owner];\n  }\n\n  function approve(address _spender, uint _value) returns (bool success) {\n\n    // To change the approve amount you first have to reduce the addresses`\n    //  allowance to zero by calling `approve(_spender, 0)` if it is not\n    //  already 0 to mitigate the race condition described here:\n    //  https://github.com/ethereum/EIPs/issues/20#issuecomment-263524729\n    if ((_value != 0) && (allowed[msg.sender][_spender] != 0)) revert();\n\n    allowed[msg.sender][_spender] = _value;\n    Approval(msg.sender, _spender, _value);\n    return true;\n  }\n\n  function allowance(address _owner, address _spender) constant returns (uint remaining) {\n    return allowed[_owner][_spender];\n  }\n\n  /**\n   * Atomic increment of approved spending\n   *\n   * Works around https://github.com/ethereum/EIPs/issues/20#issuecomment-263524729\n   *\n   */\n  function addApproval(address _spender, uint _addedValue)\n  onlyPayloadSize(2 * 32)\n  returns (bool success) {\n      uint oldValue = allowed[msg.sender][_spender];\n      allowed[msg.sender][_spender] = safeAdd(oldValue, _addedValue);\n      Approval(msg.sender, _spender, allowed[msg.sender][_spender]);\n      return true;\n  }\n\n  /**\n   * Atomic decrement of approved spending.\n   *\n   * Works around https://github.com/ethereum/EIPs/issues/20#issuecomment-263524729\n   */\n  function subApproval(address _spender, uint _subtractedValue)\n  onlyPayloadSize(2 * 32)\n  returns (bool success) {\n\n      uint oldVal = allowed[msg.sender][_spender];\n\n      if (_subtractedValue > oldVal) {\n          allowed[msg.sender][_spender] = 0;\n      } else {\n          allowed[msg.sender][_spender] = safeSub(oldVal, _subtractedValue);\n      }\n      Approval(msg.sender, _spender, allowed[msg.sender][_spender]);\n      return true;\n  }\n\n}\n\n\n\ncontract BurnableToken is StandardToken {\n\n  address public constant BURN_ADDRESS = 0;\n\n  /** How many tokens we burned */\n  event Burned(address burner, uint burnedAmount);\n\n  /**\n   * Burn extra tokens from a balance.\n   *\n   */\n  function burn(uint burnAmount) {\n    address burner = msg.sender;\n    balances[burner] = safeSub(balances[burner], burnAmount);\n    totalSupply = safeSub(totalSupply, burnAmount);\n    Burned(burner, burnAmount);\n  }\n}\n\n\n\n\n\n/**\n * Upgrade agent interface inspired by Lunyr.\n *\n * Upgrade agent transfers tokens to a new contract.\n * Upgrade agent itself can be the token contract, or just a middle man contract doing the heavy lifting.\n */\ncontract UpgradeAgent {\n\n  uint public originalSupply;\n\n  /** Interface marker */\n  function isUpgradeAgent() public constant returns (bool) {\n    return true;\n  }\n\n  function upgradeFrom(address _from, uint256 _value) public;\n\n}\n\n\n/**\n * A token upgrade mechanism where users can opt-in amount of tokens to the next smart contract revision.\n *\n * First envisioned by Golem and Lunyr projects.\n */\ncontract UpgradeableToken is StandardToken {\n\n  /** Contract / person who can set the upgrade path. This can be the same as team multisig wallet, as what it is with its default value. */\n  address public upgradeMaster;\n\n  /** The next contract where the tokens will be migrated. */\n  UpgradeAgent public upgradeAgent;\n\n  /** How many tokens we have upgraded by now. */\n  uint256 public totalUpgraded;\n\n  /**\n   * Upgrade states.\n   *\n   * - NotAllowed: The child contract has not reached a condition where the upgrade can bgun\n   * - WaitingForAgent: Token allows upgrade, but we don't have a new agent yet\n   * - ReadyToUpgrade: The agent is set, but not a single token has been upgraded yet\n   * - Upgrading: Upgrade agent is set and the balance holders can upgrade their tokens\n   *\n   */\n  enum UpgradeState {Unknown, NotAllowed, WaitingForAgent, ReadyToUpgrade, Upgrading}\n\n  /**\n   * Somebody has upgraded some of his tokens.\n   */\n  event Upgrade(address indexed _from, address indexed _to, uint256 _value);\n\n  /**\n   * New upgrade agent available.\n   */\n  event UpgradeAgentSet(address agent);\n\n  /**\n   * Do not allow construction without upgrade master set.\n   */\n  function UpgradeableToken(address _upgradeMaster) {\n    upgradeMaster = _upgradeMaster;\n  }\n\n  /**\n   * Allow the token holder to upgrade some of their tokens to a new contract.\n   */\n  function upgrade(uint256 value) public {\n\n      UpgradeState state = getUpgradeState();\n      if(!(state == UpgradeState.ReadyToUpgrade || state == UpgradeState.Upgrading)) {\n        // Called in a bad state\n        revert();\n      }\n\n      // Validate input value.\n      if (value == 0) revert();\n\n      balances[msg.sender] = safeSub(balances[msg.sender], value);\n\n      // Take tokens out from circulation\n      totalSupply = safeSub(totalSupply, value);\n      totalUpgraded = safeAdd(totalUpgraded, value);\n\n      // Upgrade agent reissues the tokens\n      upgradeAgent.upgradeFrom(msg.sender, value);\n      Upgrade(msg.sender, upgradeAgent, value);\n  }\n\n  /**\n   * Set an upgrade agent that handles\n   */\n  function setUpgradeAgent(address agent) external {\n\n      if(!canUpgrade()) {\n        // The token is not yet in a state that we could think upgrading\n        revert();\n      }\n\n      if (agent == 0x0) revert();\n      // Only a master can designate the next agent\n      if (msg.sender != upgradeMaster) revert();\n      // Upgrade has already begun for an agent\n      if (getUpgradeState() == UpgradeState.Upgrading) revert();\n\n      upgradeAgent = UpgradeAgent(agent);\n\n      // Bad interface\n      if(!upgradeAgent.isUpgradeAgent()) revert();\n      // Make sure that token supplies match in source and target\n      if (upgradeAgent.originalSupply() != totalSupply) revert();\n\n      UpgradeAgentSet(upgradeAgent);\n  }\n\n  /**\n   * Get the state of the token upgrade.\n   */\n  function getUpgradeState() public constant returns(UpgradeState) {\n    if(!canUpgrade()) return UpgradeState.NotAllowed;\n    else if(address(upgradeAgent) == 0x00) return UpgradeState.WaitingForAgent;\n    else if(totalUpgraded == 0) return UpgradeState.ReadyToUpgrade;\n    else return UpgradeState.Upgrading;\n  }\n\n  /**\n   * Change the upgrade master.\n   *\n   * This allows us to set a new owner for the upgrade mechanism.\n   */\n  function setUpgradeMaster(address master) public {\n      if (master == 0x0) revert();\n      if (msg.sender != upgradeMaster) revert();\n      upgradeMaster = master;\n  }\n\n  /**\n   * Child contract can enable to provide the condition when the upgrade can begun.\n   */\n  function canUpgrade() public constant returns(bool) {\n     return true;\n  }\n\n}\n\n\ncontract WTToken is BurnableToken, UpgradeableToken {\n\n  string public name;\n  string public symbol;\n  uint public decimals;\n  address public owner;\n\n  bool public mintingFinished = false;\n\n  mapping(address => uint) public previligedBalances;\n\n  /** List of agents that are allowed to create new tokens */\n  mapping(address => bool) public mintAgents;\n  event MintingAgentChanged(address addr, bool state);\n\n  modifier onlyOwner() {\n    if(msg.sender != owner) revert();\n    _;\n  }\n\n  modifier onlyMintAgent() {\n    // Only crowdsale contracts are allowed to mint new tokens\n    if(!mintAgents[msg.sender]) revert();\n    _;\n  }\n\n  /** Make sure we are not done yet. */\n  modifier canMint() {\n    if(mintingFinished) revert();\n    _;\n  }\n\n  function transferOwnership(address newOwner) onlyOwner {\n    if (newOwner != address(0)) {\n      owner = newOwner;\n    }\n  }\n\n  function WTToken(address _owner)  UpgradeableToken(_owner) {\n    name = \"wetoken\";\n    symbol = \"wetoken\";\n    totalSupply = 3000000000;\n    decimals = 2;\n\n    // Allocate initial balance to the owner\n    balances[_owner] = totalSupply;\n\n    // save the owner\n    owner = _owner;\n  }\n\n  // privileged transfer\n  function transferPrivileged(address _to, uint _value) onlyOwner returns (bool success) {\n    balances[msg.sender] = safeSub(balances[msg.sender], _value);\n    balances[_to] = safeAdd(balances[_to], _value);\n    previligedBalances[_to] = safeAdd(previligedBalances[_to], _value);\n    Transfer(msg.sender, _to, _value);\n    return true;\n  }\n\n  // get priveleged balance\n  function getPrivilegedBalance(address _owner) constant returns (uint balance) {\n    return previligedBalances[_owner];\n  }\n\n  // admin only can transfer from the privileged accounts\n  function transferFromPrivileged(address _from, address _to, uint _value) onlyOwner returns (bool success) {\n    uint availablePrevilegedBalance = previligedBalances[_from];\n\n    balances[_from] = safeSub(balances[_from], _value);\n    balances[_to] = safeAdd(balances[_to], _value);\n    previligedBalances[_from] = safeSub(availablePrevilegedBalance, _value);\n    Transfer(_from, _to, _value);\n    return true;\n  }\n\n  /**\n   * Create new tokens and allocate them to an address..\n   *\n   * Only callably by a crowdsale contract (mint agent).\n   */\n  function mint(address receiver, uint amount) onlyMintAgent canMint public {\n    totalSupply = safeAdd(totalSupply, amount);\n    balances[receiver] = safeAdd(balances[receiver], amount);\n\n    // This will make the mint transaction apper in EtherScan.io\n    // We can remove this after there is a standardized minting event\n    Transfer(0, receiver, amount);\n  }\n\n  /**\n   * Owner can allow a crowdsale contract to mint new tokens.\n   */\n  function setMintAgent(address addr, bool state) onlyOwner canMint public {\n    mintAgents[addr] = state;\n    MintingAgentChanged(addr, state);\n  }\n\n}",
  "sourcePath": "/Users/artem/Documents/advCompany/contracts/WTToken.sol",
  "compiler": {
    "name": "solc",
    "version": "0.4.21+commit.dfe3193c.Emscripten.clang"
  },
  "schemaVersion": "2.0.0",
  "updatedAt": "2018-05-08T11:17:04.895Z"
}